{
  "_format": "hh-sol-artifact-1",
  "contractName": "CertChainSBT",
  "sourceName": "CertChainSBT.sol",
  "abi": [
    {
      "inputs": [],
      "stateMutability": "nonpayable",
      "type": "constructor"
    },
    {
      "inputs": [],
      "name": "CertificateAlreadyExists",
      "type": "error"
    },
    {
      "inputs": [],
      "name": "CertificateAlreadyRevoked",
      "type": "error"
    },
    {
      "inputs": [],
      "name": "CertificateNotFound",
      "type": "error"
    },
    {
      "inputs": [],
      "name": "InvalidAddress",
      "type": "error"
    },
    {
      "inputs": [],
      "name": "InvalidCid",
      "type": "error"
    },
    {
      "inputs": [],
      "name": "InvalidHash",
      "type": "error"
    },
    {
      "inputs": [],
      "name": "NotApprovedInstitution",
      "type": "error"
    },
    {
      "inputs": [],
      "name": "SoulboundTokenNotTransferable",
      "type": "error"
    },
    {
      "anonymous": false,
      "inputs": [
        {
          "indexed": true,
          "internalType": "address",
          "name": "owner",
          "type": "address"
        },
        {
          "indexed": true,
          "internalType": "address",
          "name": "approved",
          "type": "address"
        },
        {
          "indexed": true,
          "internalType": "uint256",
          "name": "tokenId",
          "type": "uint256"
        }
      ],
      "name": "Approval",
      "type": "event"
    },
    {
      "anonymous": false,
      "inputs": [
        {
          "indexed": true,
          "internalType": "address",
          "name": "owner",
          "type": "address"
        },
        {
          "indexed": true,
          "internalType": "address",
          "name": "operator",
          "type": "address"
        },
        {
          "indexed": false,
          "internalType": "bool",
          "name": "approved",
          "type": "bool"
        }
      ],
      "name": "ApprovalForAll",
      "type": "event"
    },
    {
      "anonymous": false,
      "inputs": [
        {
          "indexed": false,
          "internalType": "uint256",
          "name": "_fromTokenId",
          "type": "uint256"
        },
        {
          "indexed": false,
          "internalType": "uint256",
          "name": "_toTokenId",
          "type": "uint256"
        }
      ],
      "name": "BatchMetadataUpdate",
      "type": "event"
    },
    {
      "anonymous": false,
      "inputs": [
        {
          "indexed": true,
          "internalType": "uint256",
          "name": "tokenId",
          "type": "uint256"
        },
        {
          "indexed": true,
          "internalType": "address",
          "name": "institution",
          "type": "address"
        },
        {
          "indexed": true,
          "internalType": "address",
          "name": "student",
          "type": "address"
        },
        {
          "indexed": false,
          "internalType": "string",
          "name": "ipfsCid",
          "type": "string"
        },
        {
          "indexed": false,
          "internalType": "bytes32",
          "name": "fileHash",
          "type": "bytes32"
        }
      ],
      "name": "CertificateMinted",
      "type": "event"
    },
    {
      "anonymous": false,
      "inputs": [
        {
          "indexed": true,
          "internalType": "uint256",
          "name": "tokenId",
          "type": "uint256"
        },
        {
          "indexed": false,
          "internalType": "string",
          "name": "reason",
          "type": "string"
        }
      ],
      "name": "CertificateRevoked",
      "type": "event"
    },
    {
      "anonymous": false,
      "inputs": [
        {
          "indexed": true,
          "internalType": "address",
          "name": "institution",
          "type": "address"
        },
        {
          "indexed": false,
          "internalType": "string",
          "name": "name",
          "type": "string"
        },
        {
          "indexed": false,
          "internalType": "string",
          "name": "country",
          "type": "string"
        }
      ],
      "name": "InstitutionApproved",
      "type": "event"
    },
    {
      "anonymous": false,
      "inputs": [
        {
          "indexed": true,
          "internalType": "address",
          "name": "institution",
          "type": "address"
        },
        {
          "indexed": false,
          "internalType": "string",
          "name": "reason",
          "type": "string"
        }
      ],
      "name": "InstitutionRevoked",
      "type": "event"
    },
    {
      "anonymous": false,
      "inputs": [
        {
          "indexed": false,
          "internalType": "uint256",
          "name": "_tokenId",
          "type": "uint256"
        }
      ],
      "name": "MetadataUpdate",
      "type": "event"
    },
    {
      "anonymous": false,
      "inputs": [
        {
          "indexed": true,
          "internalType": "bytes32",
          "name": "role",
          "type": "bytes32"
        },
        {
          "indexed": true,
          "internalType": "bytes32",
          "name": "previousAdminRole",
          "type": "bytes32"
        },
        {
          "indexed": true,
          "internalType": "bytes32",
          "name": "newAdminRole",
          "type": "bytes32"
        }
      ],
      "name": "RoleAdminChanged",
      "type": "event"
    },
    {
      "anonymous": false,
      "inputs": [
        {
          "indexed": true,
          "internalType": "bytes32",
          "name": "role",
          "type": "bytes32"
        },
        {
          "indexed": true,
          "internalType": "address",
          "name": "account",
          "type": "address"
        },
        {
          "indexed": true,
          "internalType": "address",
          "name": "sender",
          "type": "address"
        }
      ],
      "name": "RoleGranted",
      "type": "event"
    },
    {
      "anonymous": false,
      "inputs": [
        {
          "indexed": true,
          "internalType": "bytes32",
          "name": "role",
          "type": "bytes32"
        },
        {
          "indexed": true,
          "internalType": "address",
          "name": "account",
          "type": "address"
        },
        {
          "indexed": true,
          "internalType": "address",
          "name": "sender",
          "type": "address"
        }
      ],
      "name": "RoleRevoked",
      "type": "event"
    },
    {
      "anonymous": false,
      "inputs": [
        {
          "indexed": true,
          "internalType": "address",
          "name": "from",
          "type": "address"
        },
        {
          "indexed": true,
          "internalType": "address",
          "name": "to",
          "type": "address"
        },
        {
          "indexed": true,
          "internalType": "uint256",
          "name": "tokenId",
          "type": "uint256"
        }
      ],
      "name": "Transfer",
      "type": "event"
    },
    {
      "inputs": [],
      "name": "ADMIN_ROLE",
      "outputs": [
        {
          "internalType": "bytes32",
          "name": "",
          "type": "bytes32"
        }
      ],
      "stateMutability": "view",
      "type": "function"
    },
    {
      "inputs": [],
      "name": "DEFAULT_ADMIN_ROLE",
      "outputs": [
        {
          "internalType": "bytes32",
          "name": "",
          "type": "bytes32"
        }
      ],
      "stateMutability": "view",
      "type": "function"
    },
    {
      "inputs": [],
      "name": "INSTITUTION_ROLE",
      "outputs": [
        {
          "internalType": "bytes32",
          "name": "",
          "type": "bytes32"
        }
      ],
      "stateMutability": "view",
      "type": "function"
    },
    {
      "inputs": [
        {
          "internalType": "address",
          "name": "",
          "type": "address"
        },
        {
          "internalType": "uint256",
          "name": "",
          "type": "uint256"
        }
      ],
      "name": "approve",
      "outputs": [],
      "stateMutability": "nonpayable",
      "type": "function"
    },
    {
      "inputs": [
        {
          "internalType": "address",
          "name": "_institution",
          "type": "address"
        },
        {
          "internalType": "string",
          "name": "_name",
          "type": "string"
        },
        {
          "internalType": "string",
          "name": "_country",
          "type": "string"
        }
      ],
      "name": "approveInstitution",
      "outputs": [],
      "stateMutability": "nonpayable",
      "type": "function"
    },
    {
      "inputs": [
        {
          "internalType": "address",
          "name": "owner",
          "type": "address"
        }
      ],
      "name": "balanceOf",
      "outputs": [
        {
          "internalType": "uint256",
          "name": "",
          "type": "uint256"
        }
      ],
      "stateMutability": "view",
      "type": "function"
    },
    {
      "inputs": [
        {
          "internalType": "uint256",
          "name": "",
          "type": "uint256"
        }
      ],
      "name": "certificates",
      "outputs": [
        {
          "internalType": "string",
          "name": "ipfsCid",
          "type": "string"
        },
        {
          "internalType": "bytes32",
          "name": "fileHash",
          "type": "bytes32"
        },
        {
          "internalType": "address",
          "name": "institution",
          "type": "address"
        },
        {
          "internalType": "string",
          "name": "institutionName",
          "type": "string"
        },
        {
          "internalType": "address",
          "name": "student",
          "type": "address"
        },
        {
          "internalType": "string",
          "name": "studentName",
          "type": "string"
        },
        {
          "internalType": "string",
          "name": "degreeName",
          "type": "string"
        },
        {
          "internalType": "uint256",
          "name": "issuedAt",
          "type": "uint256"
        },
        {
          "internalType": "bool",
          "name": "isRevoked",
          "type": "bool"
        },
        {
          "internalType": "string",
          "name": "revokeReason",
          "type": "string"
        }
      ],
      "stateMutability": "view",
      "type": "function"
    },
    {
      "inputs": [
        {
          "internalType": "uint256",
          "name": "tokenId",
          "type": "uint256"
        }
      ],
      "name": "getApproved",
      "outputs": [
        {
          "internalType": "address",
          "name": "",
          "type": "address"
        }
      ],
      "stateMutability": "view",
      "type": "function"
    },
    {
      "inputs": [
        {
          "internalType": "address",
          "name": "_institution",
          "type": "address"
        }
      ],
      "name": "getInstitution",
      "outputs": [
        {
          "components": [
            {
              "internalType": "string",
              "name": "name",
              "type": "string"
            },
            {
              "internalType": "string",
              "name": "country",
              "type": "string"
            },
            {
              "internalType": "bool",
              "name": "isApproved",
              "type": "bool"
            },
            {
              "internalType": "uint256",
              "name": "approvedAt",
              "type": "uint256"
            },
            {
              "internalType": "uint256",
              "name": "certificatesIssued",
              "type": "uint256"
            }
          ],
          "internalType": "struct CertChainSBT.Institution",
          "name": "",
          "type": "tuple"
        }
      ],
      "stateMutability": "view",
      "type": "function"
    },
    {
      "inputs": [
        {
          "internalType": "address",
          "name": "_institution",
          "type": "address"
        }
      ],
      "name": "getInstitutionCertificates",
      "outputs": [
        {
          "internalType": "uint256[]",
          "name": "",
          "type": "uint256[]"
        }
      ],
      "stateMutability": "view",
      "type": "function"
    },
    {
      "inputs": [
        {
          "internalType": "bytes32",
          "name": "role",
          "type": "bytes32"
        }
      ],
      "name": "getRoleAdmin",
      "outputs": [
        {
          "internalType": "bytes32",
          "name": "",
          "type": "bytes32"
        }
      ],
      "stateMutability": "view",
      "type": "function"
    },
    {
      "inputs": [
        {
          "internalType": "address",
          "name": "_student",
          "type": "address"
        }
      ],
      "name": "getStudentCertificates",
      "outputs": [
        {
          "internalType": "uint256[]",
          "name": "",
          "type": "uint256[]"
        }
      ],
      "stateMutability": "view",
      "type": "function"
    },
    {
      "inputs": [
        {
          "internalType": "bytes32",
          "name": "role",
          "type": "bytes32"
        },
        {
          "internalType": "address",
          "name": "account",
          "type": "address"
        }
      ],
      "name": "grantRole",
      "outputs": [],
      "stateMutability": "nonpayable",
      "type": "function"
    },
    {
      "inputs": [
        {
          "internalType": "bytes32",
          "name": "role",
          "type": "bytes32"
        },
        {
          "internalType": "address",
          "name": "account",
          "type": "address"
        }
      ],
      "name": "hasRole",
      "outputs": [
        {
          "internalType": "bool",
          "name": "",
          "type": "bool"
        }
      ],
      "stateMutability": "view",
      "type": "function"
    },
    {
      "inputs": [
        {
          "internalType": "bytes32",
          "name": "",
          "type": "bytes32"
        }
      ],
      "name": "hashToTokenId",
      "outputs": [
        {
          "internalType": "uint256",
          "name": "",
          "type": "uint256"
        }
      ],
      "stateMutability": "view",
      "type": "function"
    },
    {
      "inputs": [
        {
          "internalType": "address",
          "name": "",
          "type": "address"
        },
        {
          "internalType": "uint256",
          "name": "",
          "type": "uint256"
        }
      ],
      "name": "institutionCertificates",
      "outputs": [
        {
          "internalType": "uint256",
          "name": "",
          "type": "uint256"
        }
      ],
      "stateMutability": "view",
      "type": "function"
    },
    {
      "inputs": [
        {
          "internalType": "address",
          "name": "",
          "type": "address"
        }
      ],
      "name": "institutions",
      "outputs": [
        {
          "internalType": "string",
          "name": "name",
          "type": "string"
        },
        {
          "internalType": "string",
          "name": "country",
          "type": "string"
        },
        {
          "internalType": "bool",
          "name": "isApproved",
          "type": "bool"
        },
        {
          "internalType": "uint256",
          "name": "approvedAt",
          "type": "uint256"
        },
        {
          "internalType": "uint256",
          "name": "certificatesIssued",
          "type": "uint256"
        }
      ],
      "stateMutability": "view",
      "type": "function"
    },
    {
      "inputs": [
        {
          "internalType": "address",
          "name": "owner",
          "type": "address"
        },
        {
          "internalType": "address",
          "name": "operator",
          "type": "address"
        }
      ],
      "name": "isApprovedForAll",
      "outputs": [
        {
          "internalType": "bool",
          "name": "",
          "type": "bool"
        }
      ],
      "stateMutability": "view",
      "type": "function"
    },
    {
      "inputs": [
        {
          "internalType": "address",
          "name": "_student",
          "type": "address"
        },
        {
          "internalType": "string",
          "name": "_studentName",
          "type": "string"
        },
        {
          "internalType": "string",
          "name": "_degreeName",
          "type": "string"
        },
        {
          "internalType": "string",
          "name": "_ipfsCid",
          "type": "string"
        },
        {
          "internalType": "bytes32",
          "name": "_fileHash",
          "type": "bytes32"
        },
        {
          "internalType": "string",
          "name": "_tokenUri",
          "type": "string"
        }
      ],
      "name": "mintCertificate",
      "outputs": [
        {
          "internalType": "uint256",
          "name": "",
          "type": "uint256"
        }
      ],
      "stateMutability": "nonpayable",
      "type": "function"
    },
    {
      "inputs": [],
      "name": "name",
      "outputs": [
        {
          "internalType": "string",
          "name": "",
          "type": "string"
        }
      ],
      "stateMutability": "view",
      "type": "function"
    },
    {
      "inputs": [
        {
          "internalType": "uint256",
          "name": "tokenId",
          "type": "uint256"
        }
      ],
      "name": "ownerOf",
      "outputs": [
        {
          "internalType": "address",
          "name": "",
          "type": "address"
        }
      ],
      "stateMutability": "view",
      "type": "function"
    },
    {
      "inputs": [
        {
          "internalType": "bytes32",
          "name": "role",
          "type": "bytes32"
        },
        {
          "internalType": "address",
          "name": "account",
          "type": "address"
        }
      ],
      "name": "renounceRole",
      "outputs": [],
      "stateMutability": "nonpayable",
      "type": "function"
    },
    {
      "inputs": [
        {
          "internalType": "uint256",
          "name": "_tokenId",
          "type": "uint256"
        },
        {
          "internalType": "string",
          "name": "_reason",
          "type": "string"
        }
      ],
      "name": "revokeCertificate",
      "outputs": [],
      "stateMutability": "nonpayable",
      "type": "function"
    },
    {
      "inputs": [
        {
          "internalType": "address",
          "name": "_institution",
          "type": "address"
        },
        {
          "internalType": "string",
          "name": "_reason",
          "type": "string"
        }
      ],
      "name": "revokeInstitution",
      "outputs": [],
      "stateMutability": "nonpayable",
      "type": "function"
    },
    {
      "inputs": [
        {
          "internalType": "bytes32",
          "name": "role",
          "type": "bytes32"
        },
        {
          "internalType": "address",
          "name": "account",
          "type": "address"
        }
      ],
      "name": "revokeRole",
      "outputs": [],
      "stateMutability": "nonpayable",
      "type": "function"
    },
    {
      "inputs": [
        {
          "internalType": "address",
          "name": "from",
          "type": "address"
        },
        {
          "internalType": "address",
          "name": "to",
          "type": "address"
        },
        {
          "internalType": "uint256",
          "name": "tokenId",
          "type": "uint256"
        }
      ],
      "name": "safeTransferFrom",
      "outputs": [],
      "stateMutability": "nonpayable",
      "type": "function"
    },
    {
      "inputs": [
        {
          "internalType": "address",
          "name": "from",
          "type": "address"
        },
        {
          "internalType": "address",
          "name": "to",
          "type": "address"
        },
        {
          "internalType": "uint256",
          "name": "tokenId",
          "type": "uint256"
        },
        {
          "internalType": "bytes",
          "name": "data",
          "type": "bytes"
        }
      ],
      "name": "safeTransferFrom",
      "outputs": [],
      "stateMutability": "nonpayable",
      "type": "function"
    },
    {
      "inputs": [
        {
          "internalType": "address",
          "name": "",
          "type": "address"
        },
        {
          "internalType": "bool",
          "name": "",
          "type": "bool"
        }
      ],
      "name": "setApprovalForAll",
      "outputs": [],
      "stateMutability": "nonpayable",
      "type": "function"
    },
    {
      "inputs": [
        {
          "internalType": "address",
          "name": "",
          "type": "address"
        },
        {
          "internalType": "uint256",
          "name": "",
          "type": "uint256"
        }
      ],
      "name": "studentCertificates",
      "outputs": [
        {
          "internalType": "uint256",
          "name": "",
          "type": "uint256"
        }
      ],
      "stateMutability": "view",
      "type": "function"
    },
    {
      "inputs": [
        {
          "internalType": "bytes4",
          "name": "interfaceId",
          "type": "bytes4"
        }
      ],
      "name": "supportsInterface",
      "outputs": [
        {
          "internalType": "bool",
          "name": "",
          "type": "bool"
        }
      ],
      "stateMutability": "view",
      "type": "function"
    },
    {
      "inputs": [],
      "name": "symbol",
      "outputs": [
        {
          "internalType": "string",
          "name": "",
          "type": "string"
        }
      ],
      "stateMutability": "view",
      "type": "function"
    },
    {
      "inputs": [
        {
          "internalType": "uint256",
          "name": "tokenId",
          "type": "uint256"
        }
      ],
      "name": "tokenURI",
      "outputs": [
        {
          "internalType": "string",
          "name": "",
          "type": "string"
        }
      ],
      "stateMutability": "view",
      "type": "function"
    },
    {
      "inputs": [],
      "name": "totalCertificates",
      "outputs": [
        {
          "internalType": "uint256",
          "name": "",
          "type": "uint256"
        }
      ],
      "stateMutability": "view",
      "type": "function"
    },
    {
      "inputs": [
        {
          "internalType": "address",
          "name": "from",
          "type": "address"
        },
        {
          "internalType": "address",
          "name": "to",
          "type": "address"
        },
        {
          "internalType": "uint256",
          "name": "tokenId",
          "type": "uint256"
        }
      ],
      "name": "transferFrom",
      "outputs": [],
      "stateMutability": "nonpayable",
      "type": "function"
    },
    {
      "inputs": [
        {
          "internalType": "uint256",
          "name": "_tokenId",
          "type": "uint256"
        }
      ],
      "name": "verifyCertificate",
      "outputs": [
        {
          "internalType": "bool",
          "name": "isValid",
          "type": "bool"
        },
        {
          "components": [
            {
              "internalType": "string",
              "name": "ipfsCid",
              "type": "string"
            },
            {
              "internalType": "bytes32",
              "name": "fileHash",
              "type": "bytes32"
            },
            {
              "internalType": "address",
              "name": "institution",
              "type": "address"
            },
            {
              "internalType": "string",
              "name": "institutionName",
              "type": "string"
            },
            {
              "internalType": "address",
              "name": "student",
              "type": "address"
            },
            {
              "internalType": "string",
              "name": "studentName",
              "type": "string"
            },
            {
              "internalType": "string",
              "name": "degreeName",
              "type": "string"
            },
            {
              "internalType": "uint256",
              "name": "issuedAt",
              "type": "uint256"
            },
            {
              "internalType": "bool",
              "name": "isRevoked",
              "type": "bool"
            },
            {
              "internalType": "string",
              "name": "revokeReason",
              "type": "string"
            }
          ],
          "internalType": "struct CertChainSBT.Certificate",
          "name": "certificate",
          "type": "tuple"
        }
      ],
      "stateMutability": "view",
      "type": "function"
    },
    {
      "inputs": [
        {
          "internalType": "bytes32",
          "name": "_fileHash",
          "type": "bytes32"
        }
      ],
      "name": "verifyCertificateByHash",
      "outputs": [
        {
          "internalType": "bool",
          "name": "isValid",
          "type": "bool"
        },
        {
          "internalType": "uint256",
          "name": "tokenId",
          "type": "uint256"
        },
        {
          "components": [
            {
              "internalType": "string",
              "name": "ipfsCid",
              "type": "string"
            },
            {
              "internalType": "bytes32",
              "name": "fileHash",
              "type": "bytes32"
            },
            {
              "internalType": "address",
              "name": "institution",
              "type": "address"
            },
            {
              "internalType": "string",
              "name": "institutionName",
              "type": "string"
            },
            {
              "internalType": "address",
              "name": "student",
              "type": "address"
            },
            {
              "internalType": "string",
              "name": "studentName",
              "type": "string"
            },
            {
              "internalType": "string",
              "name": "degreeName",
              "type": "string"
            },
            {
              "internalType": "uint256",
              "name": "issuedAt",
              "type": "uint256"
            },
            {
              "internalType": "bool",
              "name": "isRevoked",
              "type": "bool"
            },
            {
              "internalType": "string",
              "name": "revokeReason",
              "type": "string"
            }
          ],
          "internalType": "struct CertChainSBT.Certificate",
          "name": "certificate",
          "type": "tuple"
        }
      ],
      "stateMutability": "view",
      "type": "function"
    }
  ],
  "bytecode": "0x60806040523480156200001157600080fd5b506040518060400160405280601e81526020017f43657274436861696e2041636164656d696320436572746966696361746500008152506040518060400160405280600481526020016310d1549560e21b815250816000908162000076919062000213565b50600162000085828262000213565b506200009791506000905033620000c9565b620000c37fa49807205ce4d355092ef5a8a18f56e8913cf4a201fbe287825b095693c2177533620000c9565b620002df565b60008281526007602090815260408083206001600160a01b038516845290915290205460ff166200016a5760008281526007602090815260408083206001600160a01b03851684529091529020805460ff19166001179055620001293390565b6001600160a01b0316816001600160a01b0316837f2f8788117e7eff1d82e926ec794901d17c78024a50270940304540a733656f0d60405160405180910390a45b5050565b634e487b7160e01b600052604160045260246000fd5b600181811c908216806200019957607f821691505b602082108103620001ba57634e487b7160e01b600052602260045260246000fd5b50919050565b601f8211156200020e57600081815260208120601f850160051c81016020861015620001e95750805b601f850160051c820191505b818110156200020a57828155600101620001f5565b5050505b505050565b81516001600160401b038111156200022f576200022f6200016e565b620002478162000240845462000184565b84620001c0565b602080601f8311600181146200027f5760008415620002665750858301515b600019600386901b1c1916600185901b1785556200020a565b600085815260208120601f198616915b82811015620002b0578886015182559484019460019091019084016200028f565b5085821015620002cf5787850151600019600388901b60f8161c191681555b5050505050600190811b01905550565b61393880620002ef6000396000f3fe608060405234801561001057600080fd5b506004361061021b5760003560e01c806375b238fc11610125578063b2d9767f116100ad578063d547741f1161007c578063d547741f146104fb578063dbcfd1e21461050e578063e985e9c514610530578063ebc63bc01461056c578063f51f74a91461057f57600080fd5b8063b2d9767f1461049e578063b88d4fde146104c2578063c3934f0e146104d5578063c87b56dd146104e857600080fd5b806391d14854116100f457806391d148541461045a57806395d89b411461046d578063a217fddf14610475578063a22cb4651461047d578063b1466d1d1461048b57600080fd5b806375b238fc146103ff57806379aa7d1c146104145780637baa47d9146104275780638dce31e51461043a57600080fd5b80632f2ff15d116101a8578063596b772f11610177578063596b772f146103885780636352211e14610390578063663b3e22146103a357806370a08231146103cc57806371199236146103df57600080fd5b80632f2ff15d1461033c57806336568abe1461034f57806342842e0e14610362578063561bd1981461037557600080fd5b8063095ea7b3116101ef578063095ea7b3146102a95780631692a942146102be5780631b929c21146102df57806323b872dd14610306578063248a9ca31461031957600080fd5b8062bb97461461022057806301ffc9a71461024657806306fdde0314610269578063081812fc1461027e575b600080fd5b61023361022e366004612c43565b61059f565b6040519081526020015b60405180910390f35b610259610254366004612c83565b6105d0565b604051901515815260200161023d565b6102716105e1565b60405161023d9190612cf0565b61029161028c366004612d03565b610673565b6040516001600160a01b03909116815260200161023d565b6102bc6102b7366004612c43565b61069a565b005b6102d16102cc366004612d03565b6106b3565b60405161023d929190612e05565b6102337f01f18e249044142f95a61b39bad5f99f3c70699c83bb85a1ad87fe9e68bd85d181565b6102bc610314366004612e20565b610a2f565b610233610327366004612d03565b60009081526007602052604090206001015490565b6102bc61034a366004612e5c565b610a6e565b6102bc61035d366004612e5c565b610a93565b6102bc610370366004612e20565b610b11565b610233610383366004612ed1565b610b2c565b610233610fa7565b61029161039e366004612d03565b610fb7565b6103b66103b1366004612d03565b611017565b60405161023d9a99989796959493929190612fb2565b6102336103da366004613057565b611330565b6103f26103ed366004613057565b6113b6565b60405161023d9190613072565b6102336000805160206138e383398151915281565b6102bc6104223660046130d8565b61155a565b6102bc610435366004613159565b6116e7565b61044d610448366004613057565b611762565b60405161023d91906131ac565b610259610468366004612e5c565b6117ce565b6102716117f9565b610233600081565b6102bc6102b73660046131f0565b6102bc61049936600461322c565b611808565b6104b16104ac366004613057565b611908565b60405161023d95949392919061325f565b6102bc6104d03660046132b8565b611a4c565b6102336104e3366004612c43565b611a84565b6102716104f6366004612d03565b611aa0565b6102bc610509366004612e5c565b611aab565b61052161051c366004612d03565b611ad0565b60405161023d93929190613394565b61025961053e3660046133be565b6001600160a01b03918216600090815260056020908152604080832093909416825291909152205460ff1690565b61044d61057a366004613057565b611e5a565b61023361058d366004612d03565b600b6020526000908152604090205481565b600d60205281600052604060002081815481106105bb57600080fd5b90600052602060002001600091509150505481565b60006105db82611ec4565b92915050565b6060600080546105f0906133e8565b80601f016020809104026020016040519081016040528092919081815260200182805461061c906133e8565b80156106695780601f1061063e57610100808354040283529160200191610669565b820191906000526020600020905b81548152906001019060200180831161064c57829003601f168201915b5050505050905090565b600061067e82611ee9565b506000908152600460205260409020546001600160a01b031690565b604051635d77731360e11b815260040160405180910390fd5b60006106bd612bbd565b60008381526009602052604090819020815161014081019092528054829082906106e6906133e8565b80601f0160208091040260200160405190810160405280929190818152602001828054610712906133e8565b801561075f5780601f106107345761010080835404028352916020019161075f565b820191906000526020600020905b81548152906001019060200180831161074257829003601f168201915b50505091835250506001820154602082015260028201546001600160a01b03166040820152600382018054606090920191610799906133e8565b80601f01602080910402602001604051908101604052809291908181526020018280546107c5906133e8565b80156108125780601f106107e757610100808354040283529160200191610812565b820191906000526020600020905b8154815290600101906020018083116107f557829003601f168201915b505050918352505060048201546001600160a01b03166020820152600582018054604090920191610842906133e8565b80601f016020809104026020016040519081016040528092919081815260200182805461086e906133e8565b80156108bb5780601f10610890576101008083540402835291602001916108bb565b820191906000526020600020905b81548152906001019060200180831161089e57829003601f168201915b505050505081526020016006820180546108d4906133e8565b80601f0160208091040260200160405190810160405280929190818152602001828054610900906133e8565b801561094d5780601f106109225761010080835404028352916020019161094d565b820191906000526020600020905b81548152906001019060200180831161093057829003601f168201915b505050918352505060078201546020820152600882015460ff1615156040820152600982018054606090920191610983906133e8565b80601f01602080910402602001604051908101604052809291908181526020018280546109af906133e8565b80156109fc5780601f106109d1576101008083540402835291602001916109fc565b820191906000526020600020905b8154815290600101906020018083116109df57829003601f168201915b5050509190925250505060408101519091506001600160a01b031615801590610a285750806101000151155b9150915091565b610a393382611f4b565b610a5e5760405162461bcd60e51b8152600401610a5590613422565b60405180910390fd5b610a69838383611fca565b505050565b600082815260076020526040902060010154610a898161213b565b610a698383612145565b6001600160a01b0381163314610b035760405162461bcd60e51b815260206004820152602f60248201527f416363657373436f6e74726f6c3a2063616e206f6e6c792072656e6f756e636560448201526e103937b632b9903337b91039b2b63360891b6064820152608401610a55565b610b0d82826121cb565b5050565b610a6983838360405180602001604052806000815250611a4c565b336000908152600a602052604081206002015460ff16610b5f576040516336cc791d60e11b815260040160405180910390fd5b6001600160a01b038b16610b865760405163e6c4247b60e01b815260040160405180910390fd5b83610ba3576040516257c03760e51b815260040160405180910390fd5b6000859003610bc557604051630596182960e51b815260040160405180910390fd5b6000848152600b602052604090205415610bf257604051635a0e33b560e01b815260040160405180910390fd5b610c00600880546001019055565b6000610c0b60085490565b604080516101606020601f8b01819004028201810190925261014081018981529293509182918a908a908190850183828082843760009201829052509385525050506020808301899052336040808501829052908352600a90915290208054606090920191610c79906133e8565b80601f0160208091040260200160405190810160405280929190818152602001828054610ca5906133e8565b8015610cf25780601f10610cc757610100808354040283529160200191610cf2565b820191906000526020600020905b815481529060010190602001808311610cd557829003601f168201915b505050505081526020018d6001600160a01b031681526020018c8c8080601f016020809104026020016040519081016040528093929190818152602001838380828437600092019190915250505090825250604080516020601f8d018190048102820181019092528b815291810191908c908c9081908401838280828437600092018290525093855250504260208085019190915260408085018490528051808301825284815260609095019490945285835260099052502081518190610db990826134bd565b506020820151600182015560408201516002820180546001600160a01b0319166001600160a01b0390921691909117905560608201516003820190610dfe90826134bd565b5060808201516004820180546001600160a01b0319166001600160a01b0390921691909117905560a08201516005820190610e3990826134bd565b5060c08201516006820190610e4e90826134bd565b5060e0820151600782015561010082015160088201805460ff19169115159190911790556101208201516009820190610e8790826134bd565b5050506000858152600b602090815260408083208490556001600160a01b038f168352600c82528083208054600181810183559185528385200185905533808552600d84528285208054928301815585528385209091018590558352600a9091528120600401805491610ef983613593565b9190505550610f088c82612232565b610f488185858080601f01602080910402602001604051908101604052809392919081815260200183838082843760009201919091525061224c92505050565b8b6001600160a01b0316336001600160a01b0316827f877cc30c3bfa157a6213938c00a62e64ab0c2eafa50b745e06eb335782a272638a8a8a604051610f90939291906135d5565b60405180910390a49b9a5050505050505050505050565b6000610fb260085490565b905090565b6000818152600260205260408120546001600160a01b0316806105db5760405162461bcd60e51b8152602060048201526018602482015277115490cdcc8c4e881a5b9d985b1a59081d1bdad95b88125160421b6044820152606401610a55565b600960205260009081526040902080548190611032906133e8565b80601f016020809104026020016040519081016040528092919081815260200182805461105e906133e8565b80156110ab5780601f10611080576101008083540402835291602001916110ab565b820191906000526020600020905b81548152906001019060200180831161108e57829003601f168201915b5050505060018301546002840154600385018054949592946001600160a01b039092169350906110da906133e8565b80601f0160208091040260200160405190810160405280929190818152602001828054611106906133e8565b80156111535780601f1061112857610100808354040283529160200191611153565b820191906000526020600020905b81548152906001019060200180831161113657829003601f168201915b505050600484015460058501805494956001600160a01b0390921694919350915061117d906133e8565b80601f01602080910402602001604051908101604052809291908181526020018280546111a9906133e8565b80156111f65780601f106111cb576101008083540402835291602001916111f6565b820191906000526020600020905b8154815290600101906020018083116111d957829003601f168201915b50505050509080600601805461120b906133e8565b80601f0160208091040260200160405190810160405280929190818152602001828054611237906133e8565b80156112845780601f1061125957610100808354040283529160200191611284565b820191906000526020600020905b81548152906001019060200180831161126757829003601f168201915b50505050600783015460088401546009850180549495929460ff9092169350906112ad906133e8565b80601f01602080910402602001604051908101604052809291908181526020018280546112d9906133e8565b80156113265780601f106112fb57610100808354040283529160200191611326565b820191906000526020600020905b81548152906001019060200180831161130957829003601f168201915b505050505090508a565b60006001600160a01b03821661139a5760405162461bcd60e51b815260206004820152602960248201527f4552433732313a2061646472657373207a65726f206973206e6f7420612076616044820152683634b21037bbb732b960b91b6064820152608401610a55565b506001600160a01b031660009081526003602052604090205490565b6113ea6040518060a00160405280606081526020016060815260200160001515815260200160008152602001600081525090565b6001600160a01b0382166000908152600a602052604090819020815160a0810190925280548290829061141c906133e8565b80601f0160208091040260200160405190810160405280929190818152602001828054611448906133e8565b80156114955780601f1061146a57610100808354040283529160200191611495565b820191906000526020600020905b81548152906001019060200180831161147857829003601f168201915b505050505081526020016001820180546114ae906133e8565b80601f01602080910402602001604051908101604052809291908181526020018280546114da906133e8565b80156115275780601f106114fc57610100808354040283529160200191611527565b820191906000526020600020905b81548152906001019060200180831161150a57829003601f168201915b5050509183525050600282015460ff16151560208201526003820154604082015260049091015460609091015292915050565b6000805160206138e38339815191526115728161213b565b6001600160a01b0386166115995760405163e6c4247b60e01b815260040160405180910390fd5b6040518060a0016040528086868080601f016020809104026020016040519081016040528093929190818152602001838380828437600092019190915250505090825250604080516020601f8701819004810282018101909252858152918101919086908690819084018382808284376000920182905250938552505060016020808501919091524260408086019190915260609094018390526001600160a01b038b168352600a905250208151819061165390826134bd565b506020820151600182019061166890826134bd565b5060408281015160028301805460ff191691151591909117905560608301516003830155608090920151600490910155516001600160a01b038716907febaf997ee1bbc86d7c5b670a8472fefd93f6b57efa8891255c9eb95c4f863892906116d79088908890889088906135f9565b60405180910390a2505050505050565b6000805160206138e38339815191526116ff8161213b565b6001600160a01b0384166000818152600a602052604090819020600201805460ff19169055517fac234b0e1c8c07e26dc3f3271849babac0394b68f7d0e15f1b8d9ea28d482dfd90611754908690869061362b565b60405180910390a250505050565b6001600160a01b0381166000908152600d60209081526040918290208054835181840281018401909452808452606093928301828280156117c257602002820191906000526020600020905b8154815260200190600101908083116117ae575b50505050509050919050565b60009182526007602090815260408084206001600160a01b0393909316845291905290205460ff1690565b6060600180546105f0906133e8565b600083815260096020526040902060028101546001600160a01b03166118415760405163761e55e760e01b815260040160405180910390fd5b60028101546001600160a01b0316331480159061187357506118716000805160206138e3833981519152336117ce565b155b15611891576040516336cc791d60e11b815260040160405180910390fd5b600881015460ff16156118b757604051631ba03cdd60e31b815260040160405180910390fd5b60088101805460ff19166001179055600981016118d583858361363f565b50837f65032d3cc955c731f4c2a4178f663dbcc6c08e5163bad5a3149773f3894548d3848460405161175492919061362b565b600a60205260009081526040902080548190611923906133e8565b80601f016020809104026020016040519081016040528092919081815260200182805461194f906133e8565b801561199c5780601f106119715761010080835404028352916020019161199c565b820191906000526020600020905b81548152906001019060200180831161197f57829003601f168201915b5050505050908060010180546119b1906133e8565b80601f01602080910402602001604051908101604052809291908181526020018280546119dd906133e8565b8015611a2a5780601f106119ff57610100808354040283529160200191611a2a565b820191906000526020600020905b815481529060010190602001808311611a0d57829003601f168201915b5050505060028301546003840154600490940154929360ff9091169290915085565b611a563383611f4b565b611a725760405162461bcd60e51b8152600401610a5590613422565b611a7e84848484612317565b50505050565b600c60205281600052604060002081815481106105bb57600080fd5b60606105db8261234a565b600082815260076020526040902060010154611ac68161213b565b610a6983836121cb565b600080611adb612bbd565b6000848152600b60205260408120549250829003611aff5760008092509250611e53565b6000828152600960205260409081902081516101408101909252805482908290611b28906133e8565b80601f0160208091040260200160405190810160405280929190818152602001828054611b54906133e8565b8015611ba15780601f10611b7657610100808354040283529160200191611ba1565b820191906000526020600020905b815481529060010190602001808311611b8457829003601f168201915b50505091835250506001820154602082015260028201546001600160a01b03166040820152600382018054606090920191611bdb906133e8565b80601f0160208091040260200160405190810160405280929190818152602001828054611c07906133e8565b8015611c545780601f10611c2957610100808354040283529160200191611c54565b820191906000526020600020905b815481529060010190602001808311611c3757829003601f168201915b505050918352505060048201546001600160a01b03166020820152600582018054604090920191611c84906133e8565b80601f0160208091040260200160405190810160405280929190818152602001828054611cb0906133e8565b8015611cfd5780601f10611cd257610100808354040283529160200191611cfd565b820191906000526020600020905b815481529060010190602001808311611ce057829003601f168201915b50505050508152602001600682018054611d16906133e8565b80601f0160208091040260200160405190810160405280929190818152602001828054611d42906133e8565b8015611d8f5780601f10611d6457610100808354040283529160200191611d8f565b820191906000526020600020905b815481529060010190602001808311611d7257829003601f168201915b505050918352505060078201546020820152600882015460ff1615156040820152600982018054606090920191611dc5906133e8565b80601f0160208091040260200160405190810160405280929190818152602001828054611df1906133e8565b8015611e3e5780601f10611e1357610100808354040283529160200191611e3e565b820191906000526020600020905b815481529060010190602001808311611e2157829003601f168201915b50505050508152505090508061010001511592505b9193909250565b6001600160a01b0381166000908152600c60209081526040918290208054835181840281018401909452808452606093928301828280156117c257602002820191906000526020600020908154815260200190600101908083116117ae5750505050509050919050565b60006001600160e01b03198216637965db0b60e01b14806105db57506105db82612452565b6000818152600260205260409020546001600160a01b0316611f485760405162461bcd60e51b8152602060048201526018602482015277115490cdcc8c4e881a5b9d985b1a59081d1bdad95b88125160421b6044820152606401610a55565b50565b600080611f5783610fb7565b9050806001600160a01b0316846001600160a01b03161480611f9e57506001600160a01b0380821660009081526005602090815260408083209388168352929052205460ff165b80611fc25750836001600160a01b0316611fb784610673565b6001600160a01b0316145b949350505050565b826001600160a01b0316611fdd82610fb7565b6001600160a01b0316146120035760405162461bcd60e51b8152600401610a5590613700565b6001600160a01b0382166120655760405162461bcd60e51b8152602060048201526024808201527f4552433732313a207472616e7366657220746f20746865207a65726f206164646044820152637265737360e01b6064820152608401610a55565b6120728383836001612477565b826001600160a01b031661208582610fb7565b6001600160a01b0316146120ab5760405162461bcd60e51b8152600401610a5590613700565b600081815260046020908152604080832080546001600160a01b03199081169091556001600160a01b0387811680865260038552838620805460001901905590871680865283862080546001019055868652600290945282852080549092168417909155905184937fddf252ad1be2c89b69c2b068fc378daa952ba7f163c4a11628f55a4df523b3ef91a4505050565b611f4881336124ba565b61214f82826117ce565b610b0d5760008281526007602090815260408083206001600160a01b03851684529091529020805460ff191660011790556121873390565b6001600160a01b0316816001600160a01b0316837f2f8788117e7eff1d82e926ec794901d17c78024a50270940304540a733656f0d60405160405180910390a45050565b6121d582826117ce565b15610b0d5760008281526007602090815260408083206001600160a01b0385168085529252808320805460ff1916905551339285917ff6391f5c32d9c69d2a47ea670b442974b53935d1edc7fd64eb21e047a839171b9190a45050565b610b0d828260405180602001604052806000815250612513565b6000828152600260205260409020546001600160a01b03166122c75760405162461bcd60e51b815260206004820152602e60248201527f45524337323155524953746f726167653a2055524920736574206f66206e6f6e60448201526d32bc34b9ba32b73a103a37b5b2b760911b6064820152608401610a55565b60008281526006602052604090206122df82826134bd565b506040518281527ff8e1a15aba9398e019f0b49df1a4fde98ee17ae345cb5f6b5e2c27f5033e8ce79060200160405180910390a15050565b612322848484611fca565b61232e84848484612546565b611a7e5760405162461bcd60e51b8152600401610a5590613745565b606061235582611ee9565b6000828152600660205260408120805461236e906133e8565b80601f016020809104026020016040519081016040528092919081815260200182805461239a906133e8565b80156123e75780601f106123bc576101008083540402835291602001916123e7565b820191906000526020600020905b8154815290600101906020018083116123ca57829003601f168201915b50505050509050600061240560408051602081019091526000815290565b90508051600003612417575092915050565b815115612449578082604051602001612431929190613797565b60405160208183030381529060405292505050919050565b611fc284612647565b60006001600160e01b03198216632483248360e11b14806105db57506105db826126bb565b6001600160a01b0384161580159061249757506001600160a01b03831615155b156124b557604051635d77731360e11b815260040160405180910390fd5b611a7e565b6124c482826117ce565b610b0d576124d18161270b565b6124dc83602061271d565b6040516020016124ed9291906137c6565b60408051601f198184030181529082905262461bcd60e51b8252610a5591600401612cf0565b61251d83836128b9565b61252a6000848484612546565b610a695760405162461bcd60e51b8152600401610a5590613745565b60006001600160a01b0384163b1561263c57604051630a85bd0160e11b81526001600160a01b0385169063150b7a029061258a90339089908890889060040161383b565b6020604051808303816000875af19250505080156125c5575060408051601f3d908101601f191682019092526125c29181019061386e565b60015b612622573d8080156125f3576040519150601f19603f3d011682016040523d82523d6000602084013e6125f8565b606091505b50805160000361261a5760405162461bcd60e51b8152600401610a5590613745565b805181602001fd5b6001600160e01b031916630a85bd0160e11b149050611fc2565b506001949350505050565b606061265282611ee9565b600061266960408051602081019091526000815290565b9050600081511161268957604051806020016040528060008152506126b4565b8061269384612a52565b6040516020016126a4929190613797565b6040516020818303038152906040525b9392505050565b60006001600160e01b031982166380ac58cd60e01b14806126ec57506001600160e01b03198216635b5e139f60e01b145b806105db57506301ffc9a760e01b6001600160e01b03198316146105db565b60606105db6001600160a01b03831660145b6060600061272c83600261388b565b6127379060026138a2565b67ffffffffffffffff81111561274f5761274f6132a2565b6040519080825280601f01601f191660200182016040528015612779576020820181803683370190505b509050600360fc1b81600081518110612794576127946138b5565b60200101906001600160f81b031916908160001a905350600f60fb1b816001815181106127c3576127c36138b5565b60200101906001600160f81b031916908160001a90535060006127e784600261388b565b6127f29060016138a2565b90505b600181111561286a576f181899199a1a9b1b9c1cb0b131b232b360811b85600f1660108110612826576128266138b5565b1a60f81b82828151811061283c5761283c6138b5565b60200101906001600160f81b031916908160001a90535060049490941c93612863816138cb565b90506127f5565b5083156126b45760405162461bcd60e51b815260206004820181905260248201527f537472696e67733a20686578206c656e67746820696e73756666696369656e746044820152606401610a55565b6001600160a01b03821661290f5760405162461bcd60e51b815260206004820181905260248201527f4552433732313a206d696e7420746f20746865207a65726f20616464726573736044820152606401610a55565b6000818152600260205260409020546001600160a01b0316156129745760405162461bcd60e51b815260206004820152601c60248201527f4552433732313a20746f6b656e20616c7265616479206d696e746564000000006044820152606401610a55565b612982600083836001612477565b6000818152600260205260409020546001600160a01b0316156129e75760405162461bcd60e51b815260206004820152601c60248201527f4552433732313a20746f6b656e20616c7265616479206d696e746564000000006044820152606401610a55565b6001600160a01b038216600081815260036020908152604080832080546001019055848352600290915280822080546001600160a01b0319168417905551839291907fddf252ad1be2c89b69c2b068fc378daa952ba7f163c4a11628f55a4df523b3ef908290a45050565b60606000612a5f83612ae5565b600101905060008167ffffffffffffffff811115612a7f57612a7f6132a2565b6040519080825280601f01601f191660200182016040528015612aa9576020820181803683370190505b5090508181016020015b600019016f181899199a1a9b1b9c1cb0b131b232b360811b600a86061a8153600a8504945084612ab357509392505050565b60008072184f03e93ff9f4daa797ed6e38ed64bf6a1f0160401b8310612b245772184f03e93ff9f4daa797ed6e38ed64bf6a1f0160401b830492506040015b6d04ee2d6d415b85acef81000000008310612b50576d04ee2d6d415b85acef8100000000830492506020015b662386f26fc100008310612b6e57662386f26fc10000830492506010015b6305f5e1008310612b86576305f5e100830492506008015b6127108310612b9a57612710830492506004015b60648310612bac576064830492506002015b600a83106105db5760010192915050565b604051806101400160405280606081526020016000801916815260200160006001600160a01b031681526020016060815260200160006001600160a01b03168152602001606081526020016060815260200160008152602001600015158152602001606081525090565b80356001600160a01b0381168114612c3e57600080fd5b919050565b60008060408385031215612c5657600080fd5b612c5f83612c27565b946020939093013593505050565b6001600160e01b031981168114611f4857600080fd5b600060208284031215612c9557600080fd5b81356126b481612c6d565b60005b83811015612cbb578181015183820152602001612ca3565b50506000910152565b60008151808452612cdc816020860160208601612ca0565b601f01601f19169290920160200192915050565b6020815260006126b46020830184612cc4565b600060208284031215612d1557600080fd5b5035919050565b60006101408251818552612d3282860182612cc4565b915050602083015160208501526040830151612d5960408601826001600160a01b03169052565b5060608301518482036060860152612d718282612cc4565b9150506080830151612d8e60808601826001600160a01b03169052565b5060a083015184820360a0860152612da68282612cc4565b91505060c083015184820360c0860152612dc08282612cc4565b91505060e083015160e085015261010080840151612de18287018215159052565b50506101208084015185830382870152612dfb8382612cc4565b9695505050505050565b8215158152604060208201526000611fc26040830184612d1c565b600080600060608486031215612e3557600080fd5b612e3e84612c27565b9250612e4c60208501612c27565b9150604084013590509250925092565b60008060408385031215612e6f57600080fd5b82359150612e7f60208401612c27565b90509250929050565b60008083601f840112612e9a57600080fd5b50813567ffffffffffffffff811115612eb257600080fd5b602083019150836020828501011115612eca57600080fd5b9250929050565b60008060008060008060008060008060c08b8d031215612ef057600080fd5b612ef98b612c27565b995060208b013567ffffffffffffffff80821115612f1657600080fd5b612f228e838f01612e88565b909b50995060408d0135915080821115612f3b57600080fd5b612f478e838f01612e88565b909950975060608d0135915080821115612f6057600080fd5b612f6c8e838f01612e88565b909750955060808d0135945060a08d0135915080821115612f8c57600080fd5b50612f998d828e01612e88565b915080935050809150509295989b9194979a5092959850565b6000610140808352612fc68184018e612cc4565b602084018d90526001600160a01b038c811660408601528482036060860152909150612ff2828c612cc4565b908a16608085015283810360a0850152905061300e8189612cc4565b905082810360c08401526130228188612cc4565b90508560e08401528415156101008401528281036101208401526130468185612cc4565b9d9c50505050505050505050505050565b60006020828403121561306957600080fd5b6126b482612c27565b602081526000825160a0602084015261308e60c0840182612cc4565b90506020840151601f198483030160408501526130ab8282612cc4565b91505060408401511515606084015260608401516080840152608084015160a08401528091505092915050565b6000806000806000606086880312156130f057600080fd5b6130f986612c27565b9450602086013567ffffffffffffffff8082111561311657600080fd5b61312289838a01612e88565b9096509450604088013591508082111561313b57600080fd5b5061314888828901612e88565b969995985093965092949392505050565b60008060006040848603121561316e57600080fd5b61317784612c27565b9250602084013567ffffffffffffffff81111561319357600080fd5b61319f86828701612e88565b9497909650939450505050565b6020808252825182820181905260009190848201906040850190845b818110156131e4578351835292840192918401916001016131c8565b50909695505050505050565b6000806040838503121561320357600080fd5b61320c83612c27565b91506020830135801515811461322157600080fd5b809150509250929050565b60008060006040848603121561324157600080fd5b83359250602084013567ffffffffffffffff81111561319357600080fd5b60a08152600061327260a0830188612cc4565b82810360208401526132848188612cc4565b95151560408401525050606081019290925260809091015292915050565b634e487b7160e01b600052604160045260246000fd5b600080600080608085870312156132ce57600080fd5b6132d785612c27565b93506132e560208601612c27565b925060408501359150606085013567ffffffffffffffff8082111561330957600080fd5b818701915087601f83011261331d57600080fd5b81358181111561332f5761332f6132a2565b604051601f8201601f19908116603f01168101908382118183101715613357576133576132a2565b816040528281528a602084870101111561337057600080fd5b82602086016020830137600060208483010152809550505050505092959194509250565b83151581528260208201526060604082015260006133b56060830184612d1c565b95945050505050565b600080604083850312156133d157600080fd5b6133da83612c27565b9150612e7f60208401612c27565b600181811c908216806133fc57607f821691505b60208210810361341c57634e487b7160e01b600052602260045260246000fd5b50919050565b6020808252602d908201527f4552433732313a2063616c6c6572206973206e6f7420746f6b656e206f776e6560408201526c1c881bdc88185c1c1c9bdd9959609a1b606082015260800190565b601f821115610a6957600081815260208120601f850160051c810160208610156134965750805b601f850160051c820191505b818110156134b5578281556001016134a2565b505050505050565b815167ffffffffffffffff8111156134d7576134d76132a2565b6134eb816134e584546133e8565b8461346f565b602080601f83116001811461352057600084156135085750858301515b600019600386901b1c1916600185901b1785556134b5565b600085815260208120601f198616915b8281101561354f57888601518255948401946001909101908401613530565b508582101561356d5787850151600019600388901b60f8161c191681555b5050505050600190811b01905550565b634e487b7160e01b600052601160045260246000fd5b6000600182016135a5576135a561357d565b5060010190565b81835281816020850137506000828201602090810191909152601f909101601f19169091010190565b6040815260006135e96040830185876135ac565b9050826020830152949350505050565b60408152600061360d6040830186886135ac565b82810360208401526136208185876135ac565b979650505050505050565b602081526000611fc26020830184866135ac565b67ffffffffffffffff831115613657576136576132a2565b61366b8361366583546133e8565b8361346f565b6000601f84116001811461369f57600085156136875750838201355b600019600387901b1c1916600186901b1783556136f9565b600083815260209020601f19861690835b828110156136d057868501358255602094850194600190920191016136b0565b50868210156136ed5760001960f88860031b161c19848701351681555b505060018560011b0183555b5050505050565b60208082526025908201527f4552433732313a207472616e736665722066726f6d20696e636f72726563742060408201526437bbb732b960d91b606082015260800190565b60208082526032908201527f4552433732313a207472616e7366657220746f206e6f6e20455243373231526560408201527131b2b4bb32b91034b6b83632b6b2b73a32b960711b606082015260800190565b600083516137a9818460208801612ca0565b8351908301906137bd818360208801612ca0565b01949350505050565b7f416363657373436f6e74726f6c3a206163636f756e74200000000000000000008152600083516137fe816017850160208801612ca0565b7001034b99036b4b9b9b4b733903937b6329607d1b601791840191820152835161382f816028840160208801612ca0565b01602801949350505050565b6001600160a01b0385811682528416602082015260408101839052608060608201819052600090612dfb90830184612cc4565b60006020828403121561388057600080fd5b81516126b481612c6d565b80820281158282048414176105db576105db61357d565b808201808211156105db576105db61357d565b634e487b7160e01b600052603260045260246000fd5b6000816138da576138da61357d565b50600019019056fea49807205ce4d355092ef5a8a18f56e8913cf4a201fbe287825b095693c21775a26469706673582212207bd546e581984d72867181ca69b3bf6b6a72c5bfcb47bd01702c44d400c0ba7664736f6c63430008150033",
  "linkReferences": {},
  "deployedLinkReferences": {}
}